:100000000C9462000C948A000C948A000C948A0070
:100010000C948A000C948A000C948A000C948A0038
:100020000C948A000C948A000C948A000C9436027A
:100030000C948A000C948A000C948A000C948A0018
:100040000C94EC010C948A000C948A000C948A00A5
:100050000C948A000C948A000C948A000C948A00F8
:100060000C948A000C948A000000000024002700F1
:100070002A0000000000250028002B0000000008D6
:10008000000201000003040700000000000000005F
:1000900000000000230026002900040404040404D6
:1000A0000404020202020202030303030303010227
:1000B00004081020408001020408102001020408F6
:1000C00010201E0611241FBECFEFD8E0DEBFCDBF2B
:1000D00011E0A0E0B1E0E8EBF0E102C005900D9284
:1000E000A030B107D9F721E0A0E0B1E001C01D9236
:1000F000A933B207E1F710E0C2E6D0E004C02197CF
:10010000FE010E945408C136D107C9F70E943C0382
:100110000C945A080C94000090E0FC01E458FF4F46
:100120002491FC01E255FF4F349186569F4FFC010C
:1001300084918823A1F0211118C0E82FF0E0EE0F80
:10014000FF1FEE58FF4FA591B4918FB7F89461113E
:1001500007C09C91E32FE095E923EC938FBF0895AE
:10016000EC91E32BEC938FBFFACF233029F160F0B1
:100170002730E1F02830A1F02430F9F6909180008A
:100180009F7D90938000D9CF213031F02230A9F6A5
:1001900094B59F7D94BDD1CF94B59F7794BDCDCFBD
:1001A0009091B0009F7D9093B000C7CF9091B00028
:1001B0009F779093B000C1CF909180009F779093EC
:1001C0008000BBCFCF93DF9390E0FC01E255FF4F5F
:1001D000249186569F4FFC0184918823A9F090E0DA
:1001E000880F991FFC01E859FF4FA591B491FC01BC
:1001F000EE58FF4FC591D491662349F08FB7F8941C
:10020000EC91E22BEC938FBFDF91CF9108959FB7D4
:10021000F8948C91E22FE0958E238C932881E22331
:10022000E8839FBFF1CF1F93CF93DF93FC01208121
:100230002C3028F0822FDF91CF911F910895162F37
:10024000EC0161E0812F0E94E2002881822F90E082
:10025000FC01EE0FFF1FE80FF91FEB5EFE4F612F51
:100260006F731081107C612B608319821A823CE0CD
:10027000632F0E944808839FB0011124FB01EE0FF9
:10028000FF1FE60FF71FEB5EFE4F908196FD97C0B4
:10029000AB014F5F5F4FFA01EE0FFF1FE40FF51F39
:1002A000EB5EFE4F908196FD8AC04F5F5F4FFA0173
:1002B000EE0FFF1FE40FF51FEB5EFE4F908196FDE2
:1002C0007EC04F5F5F4FFA01EE0FFF1FE40FF51F77
:1002D000EB5EFE4F908196FD72C04F5F5F4FFA015B
:1002E000EE0FFF1FE40FF51FEB5EFE4F908196FDB2
:1002F00066C04F5F5F4FFA01EE0FFF1FE40FF51F5F
:10030000EB5EFE4F908196FD5AC04F5F5F4FFA0142
:10031000EE0FFF1FE40FF51FEB5EFE4F908196FD81
:100320004EC04F5F5F4FFA01EE0FFF1FE40FF51F46
:10033000EB5EFE4F908196FD42C04F5F5F4FFA012A
:10034000EE0FFF1FE40FF51FEB5EFE4F908196FD51
:1003500036C04F5F5F4FFA01EE0FFF1FE40FF51F2E
:10036000EB5EFE4F908196FD2AC04F5F5F4FFA0112
:10037000EE0FFF1FE40FF51FEB5EFE4F908196FD21
:100380001EC0655F7F4FFB01EE0FFF1FE60FF71FDB
:10039000EB5EFE4F908196FD12C0811110C010924D
:1003A000800082E08093810010928500109284008A
:1003B000B19A80916F00826080936F002881822FB4
:1003C00090E0FC01EE0FFF1FE80FF91FEB5EFE4F00
:1003D0008081806480832ECF1F920F920FB60F9280
:1003E00011242F933F938F939F93AF93BF9380914B
:1003F000030190910401A0910501B0910601309193
:10040000020123E0230F2D3768F126E8230F02961F
:10041000A11DB11D2093020180930301909304015B
:10042000A0930501B0930601809107019091080106
:10043000A0910901B0910A010196A11DB11D8093FF
:10044000070190930801A0930901B0930A01BF919D
:10045000AF919F918F913F912F910F900FBE0F9071
:100460001F9018950196A11DB11DD4CF1F920F9218
:100470000FB60F9211242F933F934F935F936F9377
:100480007F938F939F93AF93BF93CF93DF93EF931C
:10049000FF9380910101C0910001D0E087FDA2C0CF
:1004A00080910101082E000C990B8C179D070CF40C
:1004B00078C0809101018F5F8093010180910101DB
:1004C000082E000C990B8C179D07ECF5809101010B
:1004D0008C30CCF52091840030918500E0910101B1
:1004E0008E2FEE0F990BFC01EE0FFF1FE80FF91F87
:1004F000EB5EFE4F81819281820F931F9093890062
:1005000080938800E09101018E2FEE0F990BFC0182
:10051000EE0FFF1FE80FF91FEB5EFE4F808186FF95
:1005200026C0E09101018E2FEE0F990BFC01EE0F1A
:10053000FF1FE80FF91FEB5EFE4F808161E08F73B4
:100540000E948C0014C080918400909185000496D4
:1005500080349C49F8F08091840090918500049645
:1005600090938900809388008FEF80930101FF9121
:10057000EF91DF91CF91BF91AF919F918F917F913B
:100580006F915F914F913F912F910F900FBE0F9000
:100590001F90189580E49CE99093890080938800CF
:1005A000E3CFE09101018E2FEE0F990BFC01EE0FCE
:1005B000FF1FE80FF91FEB5EFE4F808186FF79CFAA
:1005C000E09101018E2FEE0F990BFC01EE0FFF1F42
:1005D000E80FF91FEB5EFE4F808160E08F730E9491
:1005E0008C0067CF109285001092840062CFCF926A
:1005F000DF92EF92FF920F931F93E82FF92F05C020
:10060000015011092109310961F190819623941754
:10061000B9F305C0015011092109310911F1908187
:1006200096239413F7CFC12CD12CE12CF12C0AC0C6
:100630008FEFC81AD80AE80AF80A0C151D052E050E
:100640003F0579F080818623841791F36C2D7D2DF1
:100650008E2D9F2D1F910F91FF90EF90DF90CF90E7
:10066000089560E070E080E090E01F910F91FF90AE
:10067000EF90DF90CF900895CF93DF9300D0CDB768
:10068000DEB7789484B5826084BD84B5816084BD12
:1006900085B5826085BD85B5816085BD80916E0020
:1006A000816080936E001092810080918100826051
:1006B000809381008091810081608093810080918E
:1006C00080008160809380008091B100846080937D
:1006D000B1008091B00081608093B00080917A0079
:1006E000846080937A0080917A00826080937A009F
:1006F00080917A00816080937A0080917A0080688E
:1007000080937A001092C1006AE070E082E191E08B
:100710000E94130169E070E08FE091E00E941301F4
:1007200061E087E00E94E20060E086E00E94E20073
:10073000E0EA2E2EE0E03E2EF0E0EF2EF0E0FF2E7D
:10074000A4EB8A2E912CA12CB12C35C06F5F7F4F6A
:100750008F4F9F4F9F700E9424072DEC3CEC48EE7A
:1007600051E40E94B20620E030E040E05FE30E94E6
:10077000DB072B013C0140920B0150920C0160926F
:100780000D0170920E0120E030E040EA51E40E9439
:10079000AD0618160CF088C020E030E040EA51E4C5
:1007A000C301B2010E94D60718160CF49DC1E114D2
:1007B000F10409F040C2809112018C30E8F490916C
:1007C000130128E830E0291B310997FD3395220FEA
:1007D000331F220F331F220F331F245031094FB70D
:1007E000F89490E0FC01EE0FFF1FE80FF91FEB5E9D
:1007F000FE4F328321834FBF80910F018C30E8F48C
:100800009091100128E830E0291B310997FD3395BC
:10081000220F331F220F331F220F331F24503109A1
:100820004FB7F89490E0FC01EE0FFF1FE80FF91F9F
:10083000EB5EFE4F328321834FBF61E087E00E9471
:100840008C008FB7F8944091070150910801609196
:10085000090170910A0196B595B38FBF60E087E0FA
:100860000E948C00E4EBF0E06491F1018491E82FA8
:10087000F0E0EE0FFF1FE057FF4F8591949100E4E9
:1008800012E42FE030E0462F0E94F7026115710557
:100890008105910509F05ACF10920B0110920C01BD
:1008A00010920D0110920E01D0901201FBE0FD1587
:1008B00008F455C080911401B8E56B2EB2E07B2E90
:1008C000681A710887FD7394C301880F991F880FF8
:1008D000991F9A8389838091130108E810E0081B0F
:1008E000110987FD1395000F111F000F111F28011B
:1008F000012E000C66087708E981FA819F01FF0F3D
:10090000440B550B2419350946095709A9E6B0E0EF
:100910000E947106A50194010E945206BA01A90124
:10092000440D551D661D771D4017510734F0098190
:100930001A81401751070CF48A0102501109000F67
:10094000111F2FB7F8948D2D90E0FC01EE0FFF1FC3
:10095000E80FF91FEB5EFE4F128301832FBFD0908B
:100960000F01FBE0FD1508F455C08091110148E529
:10097000642E42E0742E681A710887FD7394C301D7
:10098000880F991F880F991F9A838983809110017E
:1009900008E810E0081B110987FD1395000F111FCF
:1009A000000F111F2801012E000C66087708E9814D
:1009B000FA819F01FF0F440B550B24193509460995
:1009C0005709A9E6B0E00E947106A50194010E94B2
:1009D0005206BA01A901440D551D661D771D401729
:1009E000510734F009811A81401751070CF48A012C
:1009F00002501109000F111F2FB7F8948D2D90E0B0
:100A0000FC01EE0FFF1FE80FF91FEB5EFE4F128394
:100A100001832FBF9FB7F8944091070150910801BF
:100A20006091090170910A0186B5A89B06C08F3FAD
:100A300021F04F5F5F4F6F4F7F4F9FBF762F652F26
:100A4000542F4427480F511D611D711D440F551F20
:100A5000661F771F440F551F661F771F04EF11E0B5
:100A600020E030E0FFB7F8948091070190910801F1
:100A7000A0910901B0910A01E6B5A89B05C0EF3F1E
:100A800019F00196A11DB11DFFBFBA2FA92F982FF4
:100A900088278E0F911DA11DB11D880F991FAA1FB8
:100AA000BB1F880F991FAA1FBB1F841B950BA60B8A
:100AB000B70B883E9340A105B105A0F20150110982
:100AC0002109310948515C4F6F4F7F4F01151105C6
:100AD0002105310539F640900B0150900C016090D2
:100AE0000D0170900E0158CE809112018C30E8F407
:100AF0009091130128E830E0291B310997FD3395C7
:100B0000220F331F220F331F220F331F24503109AE
:100B10004FB7F89490E0FC01EE0FFF1FE80FF91FAC
:100B2000EB5EFE4F328321834FBF80910F018C30EB
:100B3000E8F49091100128E830E0291B310997FD75
:100B40003395220F331F220F331F220F331F2450E0
:100B500031094FB7F89490E0FC01EE0FFF1FE80F4A
:100B6000F91FEB5EFE4F328321834FBF9FB7F8948E
:100B700040910701509108016091090170910A01AB
:100B800086B5A89B06C08F3F21F04F5F5F4F6F4F28
:100B90007F4F9FBF762F652F542F4427480F511D3D
:100BA000611D711D440F551F661F771F440F551F90
:100BB000661F771F02E310E020E030E0FFB7F894F3
:100BC0008091070190910801A0910901B0910A015B
:100BD000E6B5A89B05C0EF3F19F00196A11DB11D18
:100BE000FFBFBA2FA92F982F88278E0F911DA11D07
:100BF000B11D880F991FAA1FBB1F880F991FAA1F1D
:100C0000BB1F841B950BA60BB70B883E9340A10519
:100C1000B105A0F2015011092109310948515C4F79
:100C20006F4F7F4F011511052105310539F6E1148C
:100C3000F10409F4C0CD0E940000BDCD80910001F7
:100C40008C3048F09FEF909312018C30C0F08FEF02
:100C500080930F01089521E0280F209300018093D5
:100C6000120190E0FC01EE0FFF1FE80FF91FEB5E91
:100C7000FE4F88EB9BE092838183822FE6CF91E049
:100C8000980F9093000180930F0190E0FC01EE0F0C
:100C9000FF1FE80FF91FEB5EFE4F88EB9BE092838E
:100CA00081830895052E97FB1EF400940E94690627
:100CB00057FD07D00E947C0607FC03D04EF40C942D
:100CC000690650954095309521953F4F4F4F5F4FA6
:100CD000089590958095709561957F4F8F4F9F4FA8
:100CE00008950E949E06A59F900DB49F900DA49F0D
:100CF000800D911D11240895A1E21A2EAA1BBB1B81
:100D0000FD010DC0AA1FBB1FEE1FFF1FA217B307D7
:100D1000E407F50720F0A21BB30BE40BF50B661FED
:100D2000771F881F991F1A9469F7609570958095B1
:100D300090959B01AC01BD01CF010895A29FB00128
:100D4000B39FC001A39F700D811D1124911DB29FFF
:100D5000700D811D1124911D08950E94610708F4F2
:100D600081E008950E94C6060C949C070E94950796
:100D700058F00E948E0740F029F45F3F29F00C9450
:100D8000850751110C94D0070C948B070E94AD0776
:100D900068F39923B1F3552391F3951B550BBB27AA
:100DA000AA2762177307840738F09F5F5F4F220FEF
:100DB000331F441FAA1FA9F335D00E2E3AF0E0E8E6
:100DC00032D091505040E695001CCAF72BD0FE2F30
:100DD00029D0660F771F881FBB1F261737074807C4
:100DE000AB07B0E809F0BB0B802DBF01FF2793587C
:100DF0005F4F3AF09E3F510578F00C9485070C94B4
:100E0000D0075F3FE4F3983ED4F3869577956795D6
:100E1000B795F7959F5FC9F7880F911D96958795B0
:100E200097F90895E1E0660F771F881FBB1F6217CF
:100E300073078407BA0720F0621B730B840BBA0B8D
:100E4000EE1F88F7E0950895E89409C097FB3EF4FB
:100E500090958095709561957F4F8F4F9F4F992307
:100E6000A9F0F92F96E9BB279395F6958795779585
:100E70006795B795F111F8CFFAF4BB0F11F460FF45
:100E80001BC06F5F7F4F8F4F9F4F16C0882311F09D
:100E900096E911C0772321F09EE8872F762F05C0B1
:100EA000662371F096E8862F70E060E02AF09A954C
:100EB000660F771F881FDAF7880F9695879597F941
:100EC0000895990F0008550FAA0BE0E8FEEF1616DB
:100ED0001706E807F907C0F012161306E407F5072E
:100EE00098F0621B730B840B950B39F40A2661F0A2
:100EF000232B242B252B21F408950A2609F4A14045
:100F0000A6958FEF811D811D089597F99F6780E851
:100F100070E060E008959FEF80EC089500240A944B
:100F20001616170618060906089500240A941216C4
:100F30001306140605060895092E0394000C11F4F7
:100F4000882352F0BB0F40F4BF2B11F460FF04C0A4
:100F50006F5F7F4F8F4F9F4F089557FD9058440FFD
:100F6000551F59F05F3F71F04795880F97FB991F08
:100F700061F09F3F79F087950895121613061406C5
:100F8000551FF2CF4695F1DF08C016161706180652
:100F9000991FF1CF86957105610508940895E8942D
:100FA000BB2766277727CB0197F908950E94610731
:100FB00008F48FEF08950E94EE070C949C070E949E
:100FC0008E0738F00E94950720F0952311F00C94BD
:100FD00085070C948B0711240C94D0070E94AD0751
:100FE00070F3959FC1F3950F50E0551F629FF0017C
:100FF000729FBB27F00DB11D639FAA27F00DB11D95
:10100000AA1F649F6627B00DA11D661F829F22271D
:10101000B00DA11D621F739FB00DA11D621F839FA4
:10102000A00D611D221F749F3327A00D611D231F7A
:10103000849F600D211D822F762F6A2F11249F57C8
:1010400050409AF0F1F088234AF0EE0FFF1FBB1FCB
:10105000661F771F881F91505040A9F79E3F51058A
:1010600080F00C9485070C94D0075F3FE4F3983E22
:10107000D4F3869577956795B795F795E7959F5F34
:10108000C1F7FE2B880F911D9695879597F90895C6
:10109000991B79E004C0991F961708F0961B881FCA
:1010A0007A95C9F780950895EE0FFF1F0590F4918A
:0810B000E02D0994F894FFCF34
:00000001FF
